{
  "contractName": "NFTMarketPlace",
  "abi": [
    {
      "inputs": [
        {
          "internalType": "address",
          "name": "nftContract",
          "type": "address"
        },
        {
          "internalType": "uint256",
          "name": "nftItemId",
          "type": "uint256"
        },
        {
          "internalType": "uint256",
          "name": "amount",
          "type": "uint256"
        }
      ],
      "name": "buyNFt",
      "outputs": [],
      "stateMutability": "payable",
      "type": "function"
    },
    {
      "inputs": [
        {
          "internalType": "address",
          "name": "nftContract",
          "type": "address"
        },
        {
          "internalType": "uint256",
          "name": "nftItemId",
          "type": "uint256"
        }
      ],
      "name": "cancelResellWitholdPrice",
      "outputs": [],
      "stateMutability": "payable",
      "type": "function"
    },
    {
      "inputs": [
        {
          "internalType": "address",
          "name": "nftContract",
          "type": "address"
        },
        {
          "internalType": "uint256",
          "name": "tokenId",
          "type": "uint256"
        },
        {
          "internalType": "uint256",
          "name": "price",
          "type": "uint256"
        }
      ],
      "name": "createItemForSale",
      "outputs": [],
      "stateMutability": "payable",
      "type": "function"
    },
    {
      "inputs": [
        {
          "internalType": "uint256",
          "name": "nftItemId",
          "type": "uint256"
        },
        {
          "internalType": "uint256",
          "name": "amount",
          "type": "uint256"
        }
      ],
      "name": "placeBid",
      "outputs": [],
      "stateMutability": "nonpayable",
      "type": "function"
    },
    {
      "inputs": [],
      "stateMutability": "nonpayable",
      "type": "constructor"
    },
    {
      "anonymous": false,
      "inputs": [
        {
          "indexed": true,
          "internalType": "address",
          "name": "nftContract",
          "type": "address"
        },
        {
          "indexed": true,
          "internalType": "uint256",
          "name": "id",
          "type": "uint256"
        },
        {
          "indexed": false,
          "internalType": "uint256",
          "name": "tokenId",
          "type": "uint256"
        },
        {
          "indexed": false,
          "internalType": "address",
          "name": "creator",
          "type": "address"
        },
        {
          "indexed": false,
          "internalType": "address",
          "name": "seller",
          "type": "address"
        },
        {
          "indexed": false,
          "internalType": "address",
          "name": "owner",
          "type": "address"
        },
        {
          "indexed": false,
          "internalType": "uint256",
          "name": "price",
          "type": "uint256"
        },
        {
          "indexed": false,
          "internalType": "bool",
          "name": "sold",
          "type": "bool"
        },
        {
          "indexed": false,
          "internalType": "address",
          "name": "oldOwner",
          "type": "address"
        },
        {
          "indexed": false,
          "internalType": "address",
          "name": "oldSeller",
          "type": "address"
        },
        {
          "indexed": false,
          "internalType": "uint256",
          "name": "oldPrice",
          "type": "uint256"
        },
        {
          "indexed": false,
          "internalType": "bool",
          "name": "isResell",
          "type": "bool"
        },
        {
          "indexed": false,
          "internalType": "bool",
          "name": "soldFirstTime",
          "type": "bool"
        }
      ],
      "name": "NftMarketItemCreated",
      "type": "event"
    },
    {
      "anonymous": false,
      "inputs": [
        {
          "indexed": true,
          "internalType": "uint256",
          "name": "itemId",
          "type": "uint256"
        }
      ],
      "name": "ProductListed",
      "type": "event"
    },
    {
      "anonymous": false,
      "inputs": [
        {
          "indexed": true,
          "internalType": "uint256",
          "name": "id",
          "type": "uint256"
        },
        {
          "indexed": true,
          "internalType": "address",
          "name": "nftContract",
          "type": "address"
        },
        {
          "indexed": true,
          "internalType": "uint256",
          "name": "tokenId",
          "type": "uint256"
        },
        {
          "indexed": false,
          "internalType": "address",
          "name": "creator",
          "type": "address"
        },
        {
          "indexed": false,
          "internalType": "address",
          "name": "seller",
          "type": "address"
        },
        {
          "indexed": false,
          "internalType": "address",
          "name": "owner",
          "type": "address"
        },
        {
          "indexed": false,
          "internalType": "uint256",
          "name": "price",
          "type": "uint256"
        },
        {
          "indexed": false,
          "internalType": "address",
          "name": "oldOwner",
          "type": "address"
        },
        {
          "indexed": false,
          "internalType": "address",
          "name": "oldSeller",
          "type": "address"
        },
        {
          "indexed": false,
          "internalType": "uint256",
          "name": "oldPrice",
          "type": "uint256"
        },
        {
          "indexed": false,
          "internalType": "bool",
          "name": "isResell",
          "type": "bool"
        },
        {
          "indexed": false,
          "internalType": "bool",
          "name": "soldFirstTime",
          "type": "bool"
        }
      ],
      "name": "ProductSold",
      "type": "event"
    },
    {
      "anonymous": false,
      "inputs": [
        {
          "indexed": true,
          "internalType": "uint256",
          "name": "id",
          "type": "uint256"
        },
        {
          "indexed": true,
          "internalType": "uint256",
          "name": "newPrice",
          "type": "uint256"
        },
        {
          "indexed": false,
          "internalType": "bool",
          "name": "sold",
          "type": "bool"
        },
        {
          "indexed": false,
          "internalType": "address",
          "name": "owner",
          "type": "address"
        },
        {
          "indexed": false,
          "internalType": "address",
          "name": "seller",
          "type": "address"
        },
        {
          "indexed": false,
          "internalType": "bool",
          "name": "soldFirstTime",
          "type": "bool"
        }
      ],
      "name": "ProductUpdated",
      "type": "event"
    },
    {
      "inputs": [
        {
          "internalType": "address",
          "name": "nftContract",
          "type": "address"
        },
        {
          "internalType": "uint256",
          "name": "itemId",
          "type": "uint256"
        },
        {
          "internalType": "uint256",
          "name": "newPrice",
          "type": "uint256"
        }
      ],
      "name": "putItemToResell",
      "outputs": [],
      "stateMutability": "payable",
      "type": "function"
    },
    {
      "inputs": [
        {
          "internalType": "address",
          "name": "nftContract",
          "type": "address"
        },
        {
          "internalType": "address",
          "name": "buyer",
          "type": "address"
        },
        {
          "internalType": "uint256",
          "name": "nftItemId",
          "type": "uint256"
        }
      ],
      "name": "sellToBidder",
      "outputs": [],
      "stateMutability": "payable",
      "type": "function"
    },
    {
      "inputs": [
        {
          "internalType": "bool",
          "name": "status",
          "type": "bool"
        },
        {
          "internalType": "uint256",
          "name": "nftItemId",
          "type": "uint256"
        }
      ],
      "name": "setAuctionActive",
      "outputs": [],
      "stateMutability": "nonpayable",
      "type": "function"
    },
    {
      "inputs": [
        {
          "internalType": "uint256",
          "name": "time",
          "type": "uint256"
        },
        {
          "internalType": "uint256",
          "name": "nftItemId",
          "type": "uint256"
        }
      ],
      "name": "setAuctionEndTime",
      "outputs": [],
      "stateMutability": "nonpayable",
      "type": "function"
    },
    {
      "inputs": [
        {
          "internalType": "address",
          "name": "_from",
          "type": "address"
        },
        {
          "internalType": "address",
          "name": "_to",
          "type": "address"
        },
        {
          "internalType": "uint256",
          "name": "amount",
          "type": "uint256"
        }
      ],
      "name": "transferMyTokens",
      "outputs": [],
      "stateMutability": "nonpayable",
      "type": "function"
    },
    {
      "inputs": [
        {
          "internalType": "uint256",
          "name": "",
          "type": "uint256"
        }
      ],
      "name": "bids",
      "outputs": [
        {
          "internalType": "uint256",
          "name": "bidAmount",
          "type": "uint256"
        },
        {
          "internalType": "uint256",
          "name": "nftId",
          "type": "uint256"
        },
        {
          "internalType": "address",
          "name": "bidPlacedBy",
          "type": "address"
        }
      ],
      "stateMutability": "view",
      "type": "function"
    },
    {
      "inputs": [
        {
          "internalType": "uint256",
          "name": "id",
          "type": "uint256"
        }
      ],
      "name": "fetchSingleItem",
      "outputs": [
        {
          "components": [
            {
              "internalType": "address",
              "name": "nftContract",
              "type": "address"
            },
            {
              "internalType": "uint256",
              "name": "id",
              "type": "uint256"
            },
            {
              "internalType": "uint256",
              "name": "tokenId",
              "type": "uint256"
            },
            {
              "internalType": "address payable",
              "name": "creator",
              "type": "address"
            },
            {
              "internalType": "address payable",
              "name": "seller",
              "type": "address"
            },
            {
              "internalType": "address payable",
              "name": "owner",
              "type": "address"
            },
            {
              "internalType": "uint256",
              "name": "price",
              "type": "uint256"
            },
            {
              "internalType": "bool",
              "name": "sold",
              "type": "bool"
            },
            {
              "internalType": "address",
              "name": "oldOwner",
              "type": "address"
            },
            {
              "internalType": "address",
              "name": "oldSeller",
              "type": "address"
            },
            {
              "internalType": "uint256",
              "name": "oldPrice",
              "type": "uint256"
            },
            {
              "internalType": "bool",
              "name": "isResell",
              "type": "bool"
            },
            {
              "internalType": "bool",
              "name": "soldFirstTime",
              "type": "bool"
            },
            {
              "internalType": "bool",
              "name": "isAuctionOpen",
              "type": "bool"
            },
            {
              "internalType": "uint256",
              "name": "auctionEnds",
              "type": "uint256"
            }
          ],
          "internalType": "struct NFTMarketPlace.NftMerketItem",
          "name": "",
          "type": "tuple"
        }
      ],
      "stateMutability": "view",
      "type": "function"
    },
    {
      "inputs": [],
      "name": "getAllUnsoldItems",
      "outputs": [
        {
          "components": [
            {
              "internalType": "address",
              "name": "nftContract",
              "type": "address"
            },
            {
              "internalType": "uint256",
              "name": "id",
              "type": "uint256"
            },
            {
              "internalType": "uint256",
              "name": "tokenId",
              "type": "uint256"
            },
            {
              "internalType": "address payable",
              "name": "creator",
              "type": "address"
            },
            {
              "internalType": "address payable",
              "name": "seller",
              "type": "address"
            },
            {
              "internalType": "address payable",
              "name": "owner",
              "type": "address"
            },
            {
              "internalType": "uint256",
              "name": "price",
              "type": "uint256"
            },
            {
              "internalType": "bool",
              "name": "sold",
              "type": "bool"
            },
            {
              "internalType": "address",
              "name": "oldOwner",
              "type": "address"
            },
            {
              "internalType": "address",
              "name": "oldSeller",
              "type": "address"
            },
            {
              "internalType": "uint256",
              "name": "oldPrice",
              "type": "uint256"
            },
            {
              "internalType": "bool",
              "name": "isResell",
              "type": "bool"
            },
            {
              "internalType": "bool",
              "name": "soldFirstTime",
              "type": "bool"
            },
            {
              "internalType": "bool",
              "name": "isAuctionOpen",
              "type": "bool"
            },
            {
              "internalType": "uint256",
              "name": "auctionEnds",
              "type": "uint256"
            }
          ],
          "internalType": "struct NFTMarketPlace.NftMerketItem[]",
          "name": "",
          "type": "tuple[]"
        }
      ],
      "stateMutability": "view",
      "type": "function"
    },
    {
      "inputs": [
        {
          "internalType": "uint256",
          "name": "nftItemId",
          "type": "uint256"
        }
      ],
      "name": "getHighestBid",
      "outputs": [
        {
          "components": [
            {
              "internalType": "uint256",
              "name": "bidAmount",
              "type": "uint256"
            },
            {
              "internalType": "uint256",
              "name": "nftId",
              "type": "uint256"
            },
            {
              "internalType": "address",
              "name": "bidPlacedBy",
              "type": "address"
            }
          ],
          "internalType": "struct NFTMarketPlace.bid",
          "name": "",
          "type": "tuple"
        }
      ],
      "stateMutability": "view",
      "type": "function"
    },
    {
      "inputs": [],
      "name": "getMyItemCreated",
      "outputs": [
        {
          "components": [
            {
              "internalType": "address",
              "name": "nftContract",
              "type": "address"
            },
            {
              "internalType": "uint256",
              "name": "id",
              "type": "uint256"
            },
            {
              "internalType": "uint256",
              "name": "tokenId",
              "type": "uint256"
            },
            {
              "internalType": "address payable",
              "name": "creator",
              "type": "address"
            },
            {
              "internalType": "address payable",
              "name": "seller",
              "type": "address"
            },
            {
              "internalType": "address payable",
              "name": "owner",
              "type": "address"
            },
            {
              "internalType": "uint256",
              "name": "price",
              "type": "uint256"
            },
            {
              "internalType": "bool",
              "name": "sold",
              "type": "bool"
            },
            {
              "internalType": "address",
              "name": "oldOwner",
              "type": "address"
            },
            {
              "internalType": "address",
              "name": "oldSeller",
              "type": "address"
            },
            {
              "internalType": "uint256",
              "name": "oldPrice",
              "type": "uint256"
            },
            {
              "internalType": "bool",
              "name": "isResell",
              "type": "bool"
            },
            {
              "internalType": "bool",
              "name": "soldFirstTime",
              "type": "bool"
            },
            {
              "internalType": "bool",
              "name": "isAuctionOpen",
              "type": "bool"
            },
            {
              "internalType": "uint256",
              "name": "auctionEnds",
              "type": "uint256"
            }
          ],
          "internalType": "struct NFTMarketPlace.NftMerketItem[]",
          "name": "",
          "type": "tuple[]"
        }
      ],
      "stateMutability": "view",
      "type": "function"
    },
    {
      "inputs": [],
      "name": "getMyNFTPurchased",
      "outputs": [
        {
          "components": [
            {
              "internalType": "address",
              "name": "nftContract",
              "type": "address"
            },
            {
              "internalType": "uint256",
              "name": "id",
              "type": "uint256"
            },
            {
              "internalType": "uint256",
              "name": "tokenId",
              "type": "uint256"
            },
            {
              "internalType": "address payable",
              "name": "creator",
              "type": "address"
            },
            {
              "internalType": "address payable",
              "name": "seller",
              "type": "address"
            },
            {
              "internalType": "address payable",
              "name": "owner",
              "type": "address"
            },
            {
              "internalType": "uint256",
              "name": "price",
              "type": "uint256"
            },
            {
              "internalType": "bool",
              "name": "sold",
              "type": "bool"
            },
            {
              "internalType": "address",
              "name": "oldOwner",
              "type": "address"
            },
            {
              "internalType": "address",
              "name": "oldSeller",
              "type": "address"
            },
            {
              "internalType": "uint256",
              "name": "oldPrice",
              "type": "uint256"
            },
            {
              "internalType": "bool",
              "name": "isResell",
              "type": "bool"
            },
            {
              "internalType": "bool",
              "name": "soldFirstTime",
              "type": "bool"
            },
            {
              "internalType": "bool",
              "name": "isAuctionOpen",
              "type": "bool"
            },
            {
              "internalType": "uint256",
              "name": "auctionEnds",
              "type": "uint256"
            }
          ],
          "internalType": "struct NFTMarketPlace.NftMerketItem[]",
          "name": "",
          "type": "tuple[]"
        }
      ],
      "stateMutability": "view",
      "type": "function"
    },
    {
      "inputs": [],
      "name": "getMyResellItems",
      "outputs": [
        {
          "components": [
            {
              "internalType": "address",
              "name": "nftContract",
              "type": "address"
            },
            {
              "internalType": "uint256",
              "name": "id",
              "type": "uint256"
            },
            {
              "internalType": "uint256",
              "name": "tokenId",
              "type": "uint256"
            },
            {
              "internalType": "address payable",
              "name": "creator",
              "type": "address"
            },
            {
              "internalType": "address payable",
              "name": "seller",
              "type": "address"
            },
            {
              "internalType": "address payable",
              "name": "owner",
              "type": "address"
            },
            {
              "internalType": "uint256",
              "name": "price",
              "type": "uint256"
            },
            {
              "internalType": "bool",
              "name": "sold",
              "type": "bool"
            },
            {
              "internalType": "address",
              "name": "oldOwner",
              "type": "address"
            },
            {
              "internalType": "address",
              "name": "oldSeller",
              "type": "address"
            },
            {
              "internalType": "uint256",
              "name": "oldPrice",
              "type": "uint256"
            },
            {
              "internalType": "bool",
              "name": "isResell",
              "type": "bool"
            },
            {
              "internalType": "bool",
              "name": "soldFirstTime",
              "type": "bool"
            },
            {
              "internalType": "bool",
              "name": "isAuctionOpen",
              "type": "bool"
            },
            {
              "internalType": "uint256",
              "name": "auctionEnds",
              "type": "uint256"
            }
          ],
          "internalType": "struct NFTMarketPlace.NftMerketItem[]",
          "name": "",
          "type": "tuple[]"
        }
      ],
      "stateMutability": "view",
      "type": "function"
    }
  ],
  "bytecode": "0x6080604052662386f26fc100006003553480156200001c57600080fd5b50604051620038e5380380620038e583398181016040528101906200004291906200013d565b600160008190555033600260006101000a81548173ffffffffffffffffffffffffffffffffffffffff021916908373ffffffffffffffffffffffffffffffffffffffff16021790555080600160006101000a81548173ffffffffffffffffffffffffffffffffffffffff021916908373ffffffffffffffffffffffffffffffffffffffff160217905550506200016f565b600080fd5b600073ffffffffffffffffffffffffffffffffffffffff82169050919050565b60006200010582620000d8565b9050919050565b6200011781620000f8565b81146200012357600080fd5b50565b60008151905062000137816200010c565b92915050565b600060208284031215620001565762000155620000d3565b5b6000620001668482850162000126565b91505092915050565b613766806200017f6000396000f3fe60806040526004361061009c5760003560e01c806385f105ec1161006457806385f105ec146101585780639e31e65514610174578063a2bf932a1461019f578063a3c32044146101dc578063bca5244214610207578063c7a5bc4e146102325761009c565b806325135cbf146100a1578063446269e6146100cc57806358271fff146100f757806373cd962b14610113578063858c29531461013c575b600080fd5b3480156100ad57600080fd5b506100b661024e565b6040516100c39190612cd6565b60405180910390f35b3480156100d857600080fd5b506100e161065b565b6040516100ee9190612cd6565b60405180910390f35b610111600480360381019061010c9190612d55565b610aec565b005b34801561011f57600080fd5b5061013a60048036038101906101359190612da8565b611024565b005b61015660048036038101906101519190612dfb565b6110cc565b005b610172600480360381019061016d9190612d55565b61146b565b005b34801561018057600080fd5b5061018961169a565b6040516101969190612cd6565b60405180910390f35b3480156101ab57600080fd5b506101c660048036038101906101c19190612e3b565b611b2b565b6040516101d39190612f73565b60405180910390f35b3480156101e857600080fd5b506101f1611dd6565b6040516101fe9190612cd6565b60405180910390f35b34801561021357600080fd5b5061021c6122e5565b6040516102299190612f9e565b60405180910390f35b61024c60048036038101906102479190612d55565b6122ef565b005b6060600061025c6004612913565b9050600061026a6005612913565b6102746004612913565b61027e9190612fe8565b90506000808267ffffffffffffffff81111561029d5761029c61301c565b5b6040519080825280602002602001820160405280156102d657816020015b6102c3612993565b8152602001906001900390816102bb5790505b50905060005b8481101561065057600073ffffffffffffffffffffffffffffffffffffffff166006600060018461030d919061304b565b815260200190815260200160002060050160009054906101000a900473ffffffffffffffffffffffffffffffffffffffff1673ffffffffffffffffffffffffffffffffffffffff16141561063d57600060018261036a919061304b565b9050600060066000838152602001908152602001600020905080604051806101a00160405290816000820160009054906101000a900473ffffffffffffffffffffffffffffffffffffffff1673ffffffffffffffffffffffffffffffffffffffff1673ffffffffffffffffffffffffffffffffffffffff16815260200160018201548152602001600282015481526020016003820160009054906101000a900473ffffffffffffffffffffffffffffffffffffffff1673ffffffffffffffffffffffffffffffffffffffff1673ffffffffffffffffffffffffffffffffffffffff1681526020016004820160009054906101000a900473ffffffffffffffffffffffffffffffffffffffff1673ffffffffffffffffffffffffffffffffffffffff1673ffffffffffffffffffffffffffffffffffffffff1681526020016005820160009054906101000a900473ffffffffffffffffffffffffffffffffffffffff1673ffffffffffffffffffffffffffffffffffffffff1673ffffffffffffffffffffffffffffffffffffffff168152602001600682015481526020016007820160009054906101000a900460ff161515151581526020016007820160019054906101000a900473ffffffffffffffffffffffffffffffffffffffff1673ffffffffffffffffffffffffffffffffffffffff1673ffffffffffffffffffffffffffffffffffffffff1681526020016008820160009054906101000a900473ffffffffffffffffffffffffffffffffffffffff1673ffffffffffffffffffffffffffffffffffffffff1673ffffffffffffffffffffffffffffffffffffffff16815260200160098201548152602001600a820160009054906101000a900460ff16151515158152602001600a820160019054906101000a900460ff1615151515815250508486815181106106205761061f6130a1565b5b6020026020010181905250600185610638919061304b565b945050505b8080610648906130d0565b9150506102dc565b508094505050505090565b606060006106696004612913565b905060008060005b83811015610712573373ffffffffffffffffffffffffffffffffffffffff16600660006001846106a1919061304b565b815260200190815260200160002060050160009054906101000a900473ffffffffffffffffffffffffffffffffffffffff1673ffffffffffffffffffffffffffffffffffffffff1614156106ff576001836106fc919061304b565b92505b808061070a906130d0565b915050610671565b5060008267ffffffffffffffff81111561072f5761072e61301c565b5b60405190808252806020026020018201604052801561076857816020015b610755612993565b81526020019060019003908161074d5790505b50905060005b84811015610ae1573373ffffffffffffffffffffffffffffffffffffffff166006600060018461079e919061304b565b815260200190815260200160002060050160009054906101000a900473ffffffffffffffffffffffffffffffffffffffff1673ffffffffffffffffffffffffffffffffffffffff161415610ace5760006001826107fb919061304b565b9050600060066000838152602001908152602001600020905080604051806101a00160405290816000820160009054906101000a900473ffffffffffffffffffffffffffffffffffffffff1673ffffffffffffffffffffffffffffffffffffffff1673ffffffffffffffffffffffffffffffffffffffff16815260200160018201548152602001600282015481526020016003820160009054906101000a900473ffffffffffffffffffffffffffffffffffffffff1673ffffffffffffffffffffffffffffffffffffffff1673ffffffffffffffffffffffffffffffffffffffff1681526020016004820160009054906101000a900473ffffffffffffffffffffffffffffffffffffffff1673ffffffffffffffffffffffffffffffffffffffff1673ffffffffffffffffffffffffffffffffffffffff1681526020016005820160009054906101000a900473ffffffffffffffffffffffffffffffffffffffff1673ffffffffffffffffffffffffffffffffffffffff1673ffffffffffffffffffffffffffffffffffffffff168152602001600682015481526020016007820160009054906101000a900460ff161515151581526020016007820160019054906101000a900473ffffffffffffffffffffffffffffffffffffffff1673ffffffffffffffffffffffffffffffffffffffff1673ffffffffffffffffffffffffffffffffffffffff1681526020016008820160009054906101000a900473ffffffffffffffffffffffffffffffffffffffff1673ffffffffffffffffffffffffffffffffffffffff1673ffffffffffffffffffffffffffffffffffffffff16815260200160098201548152602001600a820160009054906101000a900460ff16151515158152602001600a820160019054906101000a900460ff161515151581525050848681518110610ab157610ab06130a1565b5b6020026020010181905250600185610ac9919061304b565b945050505b8080610ad9906130d0565b91505061076e565b508094505050505090565b60026000541415610b32576040517f08c379a0000000000000000000000000000000000000000000000000000000008152600401610b2990613176565b60405180910390fd5b6002600081905550813373ffffffffffffffffffffffffffffffffffffffff166006600083815260200190815260200160002060050160009054906101000a900473ffffffffffffffffffffffffffffffffffffffff1673ffffffffffffffffffffffffffffffffffffffff1614610bdf576040517f08c379a0000000000000000000000000000000000000000000000000000000008152600401610bd690613208565b60405180910390fd5b60006006600085815260200190815260200160002060020154905060008311610c3d576040517f08c379a0000000000000000000000000000000000000000000000000000000008152600401610c3490613274565b60405180910390fd5b6003543414610c81576040517f08c379a0000000000000000000000000000000000000000000000000000000008152600401610c78906132e0565b60405180910390fd5b60008590508073ffffffffffffffffffffffffffffffffffffffff1663f5537ede3330856040518463ffffffff1660e01b8152600401610cc39392919061330f565b600060405180830381600087803b158015610cdd57600080fd5b505af1158015610cf1573d6000803e3d6000fd5b5050505060006006600087815260200190815260200160002060050160009054906101000a900473ffffffffffffffffffffffffffffffffffffffff16905060006006600088815260200190815260200160002060040160009054906101000a900473ffffffffffffffffffffffffffffffffffffffff1690506000600660008981526020019081526020016000206006015490506000600660008a815260200190815260200160002060050160006101000a81548173ffffffffffffffffffffffffffffffffffffffff021916908373ffffffffffffffffffffffffffffffffffffffff16021790555082600660008a815260200190815260200160002060040160006101000a81548173ffffffffffffffffffffffffffffffffffffffff021916908373ffffffffffffffffffffffffffffffffffffffff16021790555086600660008a8152602001908152602001600020600601819055506000600660008a815260200190815260200160002060070160006101000a81548160ff0219169083151502179055506000600660008a8152602001908152602001600020600a0160006101000a81548160ff02191690831515021790555082600660008a815260200190815260200160002060070160016101000a81548173ffffffffffffffffffffffffffffffffffffffff021916908373ffffffffffffffffffffffffffffffffffffffff16021790555081600660008a815260200190815260200160002060080160006101000a81548173ffffffffffffffffffffffffffffffffffffffff021916908373ffffffffffffffffffffffffffffffffffffffff16021790555080600660008a815260200190815260200160002060090181905550610f796005612921565b600260009054906101000a900473ffffffffffffffffffffffffffffffffffffffff1673ffffffffffffffffffffffffffffffffffffffff166108fc6003549081150290604051600060405180830381858888f19350505050158015610fe3573d6000803e3d6000fd5b50877f221866c21613d6f0d77d42f9309b122a25deed1bc186cff9c2f1ddafc52c34f660405160405180910390a25050505050506001600081905550505050565b600160009054906101000a900473ffffffffffffffffffffffffffffffffffffffff1673ffffffffffffffffffffffffffffffffffffffff166323b872dd8484846040518463ffffffff1660e01b81526004016110839392919061330f565b6020604051808303816000875af11580156110a2573d6000803e3d6000fd5b505050506040513d601f19601f820116820180604052508101906110c69190613372565b50505050565b60026000541415611112576040517f08c379a000000000000000000000000000000000000000000000000000000000815260040161110990613176565b60405180910390fd5b60026000819055506000600660008381526020019081526020016000206009015490506000600660008481526020019081526020016000206002015490508373ffffffffffffffffffffffffffffffffffffffff166323b872dd3033846040518463ffffffff1660e01b815260040161118d9392919061330f565b600060405180830381600087803b1580156111a757600080fd5b505af11580156111bb573d6000803e3d6000fd5b50505050336006600085815260200190815260200160002060050160006101000a81548173ffffffffffffffffffffffffffffffffffffffff021916908373ffffffffffffffffffffffffffffffffffffffff1602179055508160066000858152602001908152602001600020600601819055506006600084815260200190815260200160002060080160009054906101000a900473ffffffffffffffffffffffffffffffffffffffff166006600085815260200190815260200160002060040160006101000a81548173ffffffffffffffffffffffffffffffffffffffff021916908373ffffffffffffffffffffffffffffffffffffffff16021790555060016006600085815260200190815260200160002060070160006101000a81548160ff0219169083151502179055506112f3600561297d565b60066000848152602001908152602001600020600201546006600085815260200190815260200160002060000160009054906101000a900473ffffffffffffffffffffffffffffffffffffffff1673ffffffffffffffffffffffffffffffffffffffff1660066000868152602001908152602001600020600101547f944dd0af3aadc440ffe9bdcc594167b91c13e697182731c20c5d5e0aba1fa0586006600088815260200190815260200160002060030160009054906101000a900473ffffffffffffffffffffffffffffffffffffffff166006600089815260200190815260200160002060040160009054906101000a900473ffffffffffffffffffffffffffffffffffffffff1633600660008b8152602001908152602001600020600601546000806000600660008f8152602001908152602001600020600a0160009054906101000a900460ff16600160405161145599989796959493929190613448565b60405180910390a4505060016000819055505050565b600260005414156114b1576040517f08c379a00000000000000000000000000000000000000000000000000000000081526004016114a890613176565b60405180910390fd5b6002600081905550600060066000848152602001908152602001600020600601549050600060066000858152602001908152602001600020600201549050611530336006600087815260200190815260200160002060040160009054906101000a900473ffffffffffffffffffffffffffffffffffffffff1685611024565b8473ffffffffffffffffffffffffffffffffffffffff166323b872dd3033846040518463ffffffff1660e01b815260040161156d9392919061330f565b600060405180830381600087803b15801561158757600080fd5b505af115801561159b573d6000803e3d6000fd5b50505050336006600086815260200190815260200160002060050160006101000a81548173ffffffffffffffffffffffffffffffffffffffff021916908373ffffffffffffffffffffffffffffffffffffffff16021790555060016006600086815260200190815260200160002060070160006101000a81548160ff021916908315150217905550600160066000868152602001908152602001600020600a0160006101000a81548160ff021916908315150217905550600160066000868152602001908152602001600020600a0160016101000a81548160ff02191690831515021790555061168b600561297d565b50506001600081905550505050565b606060006116a86004612913565b905060008060005b83811015611751573373ffffffffffffffffffffffffffffffffffffffff16600660006001846116e0919061304b565b815260200190815260200160002060040160009054906101000a900473ffffffffffffffffffffffffffffffffffffffff1673ffffffffffffffffffffffffffffffffffffffff16141561173e5760018361173b919061304b565b92505b8080611749906130d0565b9150506116b0565b5060008267ffffffffffffffff81111561176e5761176d61301c565b5b6040519080825280602002602001820160405280156117a757816020015b611794612993565b81526020019060019003908161178c5790505b50905060005b84811015611b20573373ffffffffffffffffffffffffffffffffffffffff16600660006001846117dd919061304b565b815260200190815260200160002060040160009054906101000a900473ffffffffffffffffffffffffffffffffffffffff1673ffffffffffffffffffffffffffffffffffffffff161415611b0d57600060018261183a919061304b565b9050600060066000838152602001908152602001600020905080604051806101a00160405290816000820160009054906101000a900473ffffffffffffffffffffffffffffffffffffffff1673ffffffffffffffffffffffffffffffffffffffff1673ffffffffffffffffffffffffffffffffffffffff16815260200160018201548152602001600282015481526020016003820160009054906101000a900473ffffffffffffffffffffffffffffffffffffffff1673ffffffffffffffffffffffffffffffffffffffff1673ffffffffffffffffffffffffffffffffffffffff1681526020016004820160009054906101000a900473ffffffffffffffffffffffffffffffffffffffff1673ffffffffffffffffffffffffffffffffffffffff1673ffffffffffffffffffffffffffffffffffffffff1681526020016005820160009054906101000a900473ffffffffffffffffffffffffffffffffffffffff1673ffffffffffffffffffffffffffffffffffffffff1673ffffffffffffffffffffffffffffffffffffffff168152602001600682015481526020016007820160009054906101000a900460ff161515151581526020016007820160019054906101000a900473ffffffffffffffffffffffffffffffffffffffff1673ffffffffffffffffffffffffffffffffffffffff1673ffffffffffffffffffffffffffffffffffffffff1681526020016008820160009054906101000a900473ffffffffffffffffffffffffffffffffffffffff1673ffffffffffffffffffffffffffffffffffffffff1673ffffffffffffffffffffffffffffffffffffffff16815260200160098201548152602001600a820160009054906101000a900460ff16151515158152602001600a820160019054906101000a900460ff161515151581525050848681518110611af057611aef6130a1565b5b6020026020010181905250600185611b08919061304b565b945050505b8080611b18906130d0565b9150506117ad565b508094505050505090565b611b33612993565b60066000838152602001908152602001600020604051806101a00160405290816000820160009054906101000a900473ffffffffffffffffffffffffffffffffffffffff1673ffffffffffffffffffffffffffffffffffffffff1673ffffffffffffffffffffffffffffffffffffffff16815260200160018201548152602001600282015481526020016003820160009054906101000a900473ffffffffffffffffffffffffffffffffffffffff1673ffffffffffffffffffffffffffffffffffffffff1673ffffffffffffffffffffffffffffffffffffffff1681526020016004820160009054906101000a900473ffffffffffffffffffffffffffffffffffffffff1673ffffffffffffffffffffffffffffffffffffffff1673ffffffffffffffffffffffffffffffffffffffff1681526020016005820160009054906101000a900473ffffffffffffffffffffffffffffffffffffffff1673ffffffffffffffffffffffffffffffffffffffff1673ffffffffffffffffffffffffffffffffffffffff168152602001600682015481526020016007820160009054906101000a900460ff161515151581526020016007820160019054906101000a900473ffffffffffffffffffffffffffffffffffffffff1673ffffffffffffffffffffffffffffffffffffffff1673ffffffffffffffffffffffffffffffffffffffff1681526020016008820160009054906101000a900473ffffffffffffffffffffffffffffffffffffffff1673ffffffffffffffffffffffffffffffffffffffff1673ffffffffffffffffffffffffffffffffffffffff16815260200160098201548152602001600a820160009054906101000a900460ff16151515158152602001600a820160019054906101000a900460ff1615151515815250509050919050565b60606000611de46004612913565b905060008060005b83811015611ecc573373ffffffffffffffffffffffffffffffffffffffff1660066000600184611e1c919061304b565b815260200190815260200160002060040160009054906101000a900473ffffffffffffffffffffffffffffffffffffffff1673ffffffffffffffffffffffffffffffffffffffff16148015611ea457506000151560066000600184611e81919061304b565b815260200190815260200160002060070160009054906101000a900460ff161515145b15611eb957600183611eb6919061304b565b92505b8080611ec4906130d0565b915050611dec565b5060008267ffffffffffffffff811115611ee957611ee861301c565b5b604051908082528060200260200182016040528015611f2257816020015b611f0f612993565b815260200190600190039081611f075790505b50905060005b848110156122da573373ffffffffffffffffffffffffffffffffffffffff1660066000600184611f58919061304b565b815260200190815260200160002060040160009054906101000a900473ffffffffffffffffffffffffffffffffffffffff1673ffffffffffffffffffffffffffffffffffffffff16148015611fe057506000151560066000600184611fbd919061304b565b815260200190815260200160002060070160009054906101000a900460ff161515145b156122c7576000600182611ff4919061304b565b9050600060066000838152602001908152602001600020905080604051806101a00160405290816000820160009054906101000a900473ffffffffffffffffffffffffffffffffffffffff1673ffffffffffffffffffffffffffffffffffffffff1673ffffffffffffffffffffffffffffffffffffffff16815260200160018201548152602001600282015481526020016003820160009054906101000a900473ffffffffffffffffffffffffffffffffffffffff1673ffffffffffffffffffffffffffffffffffffffff1673ffffffffffffffffffffffffffffffffffffffff1681526020016004820160009054906101000a900473ffffffffffffffffffffffffffffffffffffffff1673ffffffffffffffffffffffffffffffffffffffff1673ffffffffffffffffffffffffffffffffffffffff1681526020016005820160009054906101000a900473ffffffffffffffffffffffffffffffffffffffff1673ffffffffffffffffffffffffffffffffffffffff1673ffffffffffffffffffffffffffffffffffffffff168152602001600682015481526020016007820160009054906101000a900460ff161515151581526020016007820160019054906101000a900473ffffffffffffffffffffffffffffffffffffffff1673ffffffffffffffffffffffffffffffffffffffff1673ffffffffffffffffffffffffffffffffffffffff1681526020016008820160009054906101000a900473ffffffffffffffffffffffffffffffffffffffff1673ffffffffffffffffffffffffffffffffffffffff1673ffffffffffffffffffffffffffffffffffffffff16815260200160098201548152602001600a820160009054906101000a900460ff16151515158152602001600a820160019054906101000a900460ff1615151515815250508486815181106122aa576122a96130a1565b5b60200260200101819052506001856122c2919061304b565b945050505b80806122d2906130d0565b915050611f28565b508094505050505090565b6000600354905090565b60026000541415612335576040517f08c379a000000000000000000000000000000000000000000000000000000000815260040161232c90613176565b60405180910390fd5b600260008190555060008111612380576040517f08c379a000000000000000000000000000000000000000000000000000000000815260040161237790613521565b60405180910390fd5b600082116123c3576040517f08c379a00000000000000000000000000000000000000000000000000000000081526004016123ba9061358d565b60405180910390fd5b6003543414612407576040517f08c379a00000000000000000000000000000000000000000000000000000000081526004016123fe906132e0565b60405180910390fd5b600073ffffffffffffffffffffffffffffffffffffffff168373ffffffffffffffffffffffffffffffffffffffff161415612477576040517f08c379a000000000000000000000000000000000000000000000000000000000815260040161246e906135f9565b60405180910390fd5b612481600461297d565b600061248d6004612913565b9050604051806101a001604052808573ffffffffffffffffffffffffffffffffffffffff1681526020018281526020018481526020013373ffffffffffffffffffffffffffffffffffffffff1681526020013373ffffffffffffffffffffffffffffffffffffffff168152602001600073ffffffffffffffffffffffffffffffffffffffff168152602001838152602001600015158152602001600073ffffffffffffffffffffffffffffffffffffffff168152602001600073ffffffffffffffffffffffffffffffffffffffff168152602001838152602001600015158152602001600015158152506006600083815260200190815260200160002060008201518160000160006101000a81548173ffffffffffffffffffffffffffffffffffffffff021916908373ffffffffffffffffffffffffffffffffffffffff160217905550602082015181600101556040820151816002015560608201518160030160006101000a81548173ffffffffffffffffffffffffffffffffffffffff021916908373ffffffffffffffffffffffffffffffffffffffff16021790555060808201518160040160006101000a81548173ffffffffffffffffffffffffffffffffffffffff021916908373ffffffffffffffffffffffffffffffffffffffff16021790555060a08201518160050160006101000a81548173ffffffffffffffffffffffffffffffffffffffff021916908373ffffffffffffffffffffffffffffffffffffffff16021790555060c0820151816006015560e08201518160070160006101000a81548160ff0219169083151502179055506101008201518160070160016101000a81548173ffffffffffffffffffffffffffffffffffffffff021916908373ffffffffffffffffffffffffffffffffffffffff1602179055506101208201518160080160006101000a81548173ffffffffffffffffffffffffffffffffffffffff021916908373ffffffffffffffffffffffffffffffffffffffff160217905550610140820151816009015561016082015181600a0160006101000a81548160ff02191690831515021790555061018082015181600a0160016101000a81548160ff0219169083151502179055509050508373ffffffffffffffffffffffffffffffffffffffff166323b872dd3330866040518463ffffffff1660e01b81526004016128019392919061330f565b600060405180830381600087803b15801561281b57600080fd5b505af115801561282f573d6000803e3d6000fd5b50505050600260009054906101000a900473ffffffffffffffffffffffffffffffffffffffff1673ffffffffffffffffffffffffffffffffffffffff166108fc6003549081150290604051600060405180830381858888f1935050505015801561289d573d6000803e3d6000fd5b50808473ffffffffffffffffffffffffffffffffffffffff167f5d30be9631a749aedd45b8ea092336081aa65a429014293010081e8c385da3a385333360008860008060008c6000806040516128fd9b9a99989796959493929190613619565b60405180910390a3506001600081905550505050565b600081600001549050919050565b6000816000015490506000811161296d576040517f08c379a000000000000000000000000000000000000000000000000000000000815260040161296490613710565b60405180910390fd5b6001810382600001819055505050565b6001816000016000828254019250508190555050565b604051806101a00160405280600073ffffffffffffffffffffffffffffffffffffffff1681526020016000815260200160008152602001600073ffffffffffffffffffffffffffffffffffffffff168152602001600073ffffffffffffffffffffffffffffffffffffffff168152602001600073ffffffffffffffffffffffffffffffffffffffff16815260200160008152602001600015158152602001600073ffffffffffffffffffffffffffffffffffffffff168152602001600073ffffffffffffffffffffffffffffffffffffffff168152602001600081526020016000151581526020016000151581525090565b600081519050919050565b600082825260208201905092915050565b6000819050602082019050919050565b600073ffffffffffffffffffffffffffffffffffffffff82169050919050565b6000612adc82612ab1565b9050919050565b612aec81612ad1565b82525050565b6000819050919050565b612b0581612af2565b82525050565b6000612b1682612ab1565b9050919050565b612b2681612b0b565b82525050565b60008115159050919050565b612b4181612b2c565b82525050565b6101a082016000820151612b5e6000850182612ae3565b506020820151612b716020850182612afc565b506040820151612b846040850182612afc565b506060820151612b976060850182612b1d565b506080820151612baa6080850182612b1d565b5060a0820151612bbd60a0850182612b1d565b5060c0820151612bd060c0850182612afc565b5060e0820151612be360e0850182612b38565b50610100820151612bf8610100850182612ae3565b50610120820151612c0d610120850182612ae3565b50610140820151612c22610140850182612afc565b50610160820151612c37610160850182612b38565b50610180820151612c4c610180850182612b38565b50505050565b6000612c5e8383612b47565b6101a08301905092915050565b6000602082019050919050565b6000612c8382612a85565b612c8d8185612a90565b9350612c9883612aa1565b8060005b83811015612cc9578151612cb08882612c52565b9750612cbb83612c6b565b925050600181019050612c9c565b5085935050505092915050565b60006020820190508181036000830152612cf08184612c78565b905092915050565b600080fd5b612d0681612ad1565b8114612d1157600080fd5b50565b600081359050612d2381612cfd565b92915050565b612d3281612af2565b8114612d3d57600080fd5b50565b600081359050612d4f81612d29565b92915050565b600080600060608486031215612d6e57612d6d612cf8565b5b6000612d7c86828701612d14565b9350506020612d8d86828701612d40565b9250506040612d9e86828701612d40565b9150509250925092565b600080600060608486031215612dc157612dc0612cf8565b5b6000612dcf86828701612d14565b9350506020612de086828701612d14565b9250506040612df186828701612d40565b9150509250925092565b60008060408385031215612e1257612e11612cf8565b5b6000612e2085828601612d14565b9250506020612e3185828601612d40565b9150509250929050565b600060208284031215612e5157612e50612cf8565b5b6000612e5f84828501612d40565b91505092915050565b6101a082016000820151612e7f6000850182612ae3565b506020820151612e926020850182612afc565b506040820151612ea56040850182612afc565b506060820151612eb86060850182612b1d565b506080820151612ecb6080850182612b1d565b5060a0820151612ede60a0850182612b1d565b5060c0820151612ef160c0850182612afc565b5060e0820151612f0460e0850182612b38565b50610100820151612f19610100850182612ae3565b50610120820151612f2e610120850182612ae3565b50610140820151612f43610140850182612afc565b50610160820151612f58610160850182612b38565b50610180820151612f6d610180850182612b38565b50505050565b60006101a082019050612f896000830184612e68565b92915050565b612f9881612af2565b82525050565b6000602082019050612fb36000830184612f8f565b92915050565b7f4e487b7100000000000000000000000000000000000000000000000000000000600052601160045260246000fd5b6000612ff382612af2565b9150612ffe83612af2565b92508282101561301157613010612fb9565b5b828203905092915050565b7f4e487b7100000000000000000000000000000000000000000000000000000000600052604160045260246000fd5b600061305682612af2565b915061306183612af2565b9250827fffffffffffffffffffffffffffffffffffffffffffffffffffffffffffffffff0382111561309657613095612fb9565b5b828201905092915050565b7f4e487b7100000000000000000000000000000000000000000000000000000000600052603260045260246000fd5b60006130db82612af2565b91507fffffffffffffffffffffffffffffffffffffffffffffffffffffffffffffffff82141561310e5761310d612fb9565b5b600182019050919050565b600082825260208201905092915050565b7f5265656e7472616e637947756172643a207265656e7472616e742063616c6c00600082015250565b6000613160601f83613119565b915061316b8261312a565b602082019050919050565b6000602082019050818103600083015261318f81613153565b9050919050565b7f4f6e6c792070726f64756374206f776e65722063616e20646f2074686973206f60008201527f7065726174696f6e000000000000000000000000000000000000000000000000602082015250565b60006131f2602883613119565b91506131fd82613196565b604082019050919050565b60006020820190508181036000830152613221816131e5565b9050919050565b7f5072696365206d757374206265206174206c6561737420312077656900000000600082015250565b600061325e601c83613119565b915061326982613228565b602082019050919050565b6000602082019050818103600083015261328d81613251565b9050919050565b7f546865204d61726b6574204665657320697320302e3031204574686572000000600082015250565b60006132ca601d83613119565b91506132d582613294565b602082019050919050565b600060208201905081810360008301526132f9816132bd565b9050919050565b61330981612ad1565b82525050565b60006060820190506133246000830186613300565b6133316020830185613300565b61333e6040830184612f8f565b949350505050565b61334f81612b2c565b811461335a57600080fd5b50565b60008151905061336c81613346565b92915050565b60006020828403121561338857613387612cf8565b5b60006133968482850161335d565b91505092915050565b6000819050919050565b60006133c46133bf6133ba84612ab1565b61339f565b612ab1565b9050919050565b60006133d6826133a9565b9050919050565b60006133e8826133cb565b9050919050565b6133f8816133dd565b82525050565b6000819050919050565b600061342361341e613419846133fe565b61339f565b612af2565b9050919050565b61343381613408565b82525050565b61344281612b2c565b82525050565b60006101208201905061345e600083018c6133ef565b61346b602083018b6133ef565b613478604083018a6133ef565b6134856060830189612f8f565b6134926080830188613300565b61349f60a0830187613300565b6134ac60c083018661342a565b6134b960e0830185613439565b6134c7610100830184613439565b9a9950505050505050505050565b7f50726963652073686f756c64206265206d6f72655468616e2031000000000000600082015250565b600061350b601a83613119565b9150613516826134d5565b602082019050919050565b6000602082019050818103600083015261353a816134fe565b9050919050565b7f746f6b656e2049642073686f756c64206265206d6f72655468616e2031000000600082015250565b6000613577601d83613119565b915061358282613541565b602082019050919050565b600060208201905081810360008301526135a68161356a565b9050919050565b7f616464726573732073686f756c64206e6f7420626520657175616c2030783000600082015250565b60006135e3601f83613119565b91506135ee826135ad565b602082019050919050565b60006020820190508181036000830152613612816135d6565b9050919050565b60006101608201905061362f600083018e612f8f565b61363c602083018d613300565b613649604083018c613300565b613656606083018b613300565b613663608083018a612f8f565b61367060a0830189613439565b61367d60c0830188613300565b61368a60e0830187613300565b613698610100830186612f8f565b6136a6610120830185613439565b6136b4610140830184613439565b9c9b505050505050505050505050565b7f436f756e7465723a2064656372656d656e74206f766572666c6f770000000000600082015250565b60006136fa601b83613119565b9150613705826136c4565b602082019050919050565b60006020820190508181036000830152613729816136ed565b905091905056fea2646970667358221220699faf4c50c4e0f816d90ac8e89896529a594d5718e462600d42f37781c60c8664736f6c634300080a0033",
  "immutableReferences": {},
  "source": "// SPDX-License-Identifier: MIT\npragma solidity >=0.4.22 <0.9.0;\nimport \"@openzeppelin/contracts/utils/Counters.sol\";\nimport \"@openzeppelin/contracts/token/ERC721/ERC721.sol\";\nimport \"@openzeppelin/contracts/security/ReentrancyGuard.sol\";\nimport \"@openzeppelin/contracts/token/ERC20/ERC20.sol\";\n\nimport \"./NFT.sol\";\n\ncontract NFTMarketPlace is ReentrancyGuard {\n    ERC20 private token;\n\n    address payable owner;\n    uint256 marketFees = 0.01 ether;\n\n    using Counters for Counters.Counter;\n    Counters.Counter private itemId;\n    Counters.Counter private itemsSold;\n\n    constructor(address tokenAddress) {\n        owner = payable(msg.sender);\n        token = ERC20(address(tokenAddress));\n    }\n\n    struct NftMerketItem {\n        address nftContract;\n        uint256 id;\n        uint256 tokenId;\n        //=>\n        address payable creator;\n        address payable seller;\n        address payable owner;\n        uint256 price;\n        bool sold;\n        address oldOwner;\n        address oldSeller;\n        uint256 oldPrice;\n        bool isResell;\n        bool soldFirstTime;\n    }\n\n    event NftMarketItemCreated(\n        address indexed nftContract,\n        uint256 indexed id,\n        uint256 tokenId,\n        //=>\n        address creator,\n        address seller,\n        address owner,\n        uint256 price,\n        bool sold,\n        address oldOwner,\n        address oldSeller,\n        uint256 oldPrice,\n        bool isResell,\n        bool soldFirstTime\n    );\n    //=>\n    event ProductUpdated(\n        uint256 indexed id,\n        uint256 indexed newPrice,\n        bool sold,\n        address owner,\n        address seller,\n        bool soldFirstTime\n    );\n    //=>\n\n    //=>\n    event ProductSold(\n        uint256 indexed id,\n        address indexed nftContract,\n        uint256 indexed tokenId,\n        address creator,\n        address seller,\n        address owner,\n        uint256 price,\n        address oldOwner,\n        address oldSeller,\n        uint256 oldPrice,\n        bool isResell,\n        bool soldFirstTime\n    );\n    //==>\n    event ProductListed(uint256 indexed itemId);\n    ///=>\n    modifier onlyProductOrMarketPlaceOwner(uint256 id) {\n        if (idForMarketItem[id].owner != address(0)) {\n            require(idForMarketItem[id].owner == msg.sender);\n        } else {\n            require(\n                idForMarketItem[id].seller == msg.sender || msg.sender == owner\n            );\n        }\n        _;\n    }\n\n    modifier onlyProductSeller(uint256 id) {\n        require(\n            idForMarketItem[id].owner == address(0) &&\n                idForMarketItem[id].seller == msg.sender,\n            \"Only the product can do this operation\"\n        );\n        _;\n    }\n\n    modifier onlyItemOwner(uint256 id) {\n        require(\n            idForMarketItem[id].owner == msg.sender,\n            \"Only product owner can do this operation\"\n        );\n        _;\n    }\n\n    modifier onlyItemOldOwner(uint256 id) {\n        require(\n            idForMarketItem[id].oldOwner == msg.sender,\n            \"Only product Old owner can do this operation\"\n        );\n        _;\n    }\n\n    function gettheMarketFees() public view returns (uint256) {\n        return marketFees;\n    }\n\n    function transferMyTokens(address _from, address _to, uint256 amount) public {\n        token.transferFrom(_from, _to, amount);\n    }\n\n    ///////////////////////////////////\n    mapping(uint256 => NftMerketItem) private idForMarketItem;\n\n    ///////////////////////////////////\n    function createItemForSale(\n        address nftContract,\n        uint256 tokenId,\n        uint256 price\n    ) public payable nonReentrant {\n        require(price > 0, \"Price should be moreThan 1\");\n        require(tokenId > 0, \"token Id should be moreThan 1\");\n        require(msg.value == marketFees, \"The Market Fees is 0.01 Ether\");\n\n        require(nftContract != address(0), \"address should not be equal 0x0\");\n        itemId.increment();\n        uint256 id = itemId.current();\n\n        idForMarketItem[id] = NftMerketItem(\n            nftContract,\n            id,\n            tokenId,\n            payable(msg.sender),\n            payable(msg.sender),\n            payable(address(0)),\n            price,\n            false,\n            payable(address(0)),\n            payable(address(0)),\n            price,\n            false,\n            false\n        );\n\n        IERC721(nftContract).transferFrom(msg.sender, address(this), tokenId);\n        payable(owner).transfer(marketFees);\n        emit NftMarketItemCreated(\n            nftContract,\n            id,\n            tokenId,\n            msg.sender,\n            msg.sender,\n            address(0),\n            price,\n            false,\n            address(0),\n            address(0),\n            price,\n            false,\n            false\n        );\n    }\n\n    //Buy nft\n\n    function buyNFt(address nftContract, uint256 nftItemId, uint256 amount)\n        public\n        payable\n        nonReentrant\n    {\n        uint256 price = idForMarketItem[nftItemId].price;\n        uint256 tokenId = idForMarketItem[nftItemId].tokenId;\n\n        transferMyTokens(msg.sender, idForMarketItem[nftItemId].seller, amount);\n\n        IERC721(nftContract).transferFrom(address(this), msg.sender, tokenId); //buy\n        idForMarketItem[nftItemId].owner = payable(msg.sender);\n        idForMarketItem[nftItemId].sold = true;\n        idForMarketItem[nftItemId].isResell = true;\n        idForMarketItem[nftItemId].soldFirstTime = true;\n\n        itemsSold.increment();\n    }\n\n    //REsell\n\n    function putItemToResell(\n        address nftContract,\n        uint256 itemId,\n        uint256 newPrice\n    ) public payable nonReentrant onlyItemOwner(itemId) {\n        uint256 tokenId = idForMarketItem[itemId].tokenId;\n        require(newPrice > 0, \"Price must be at least 1 wei\");\n        require(msg.value == marketFees, \"The Market Fees is 0.01 Ether\");\n\n        NFT tokenContract = NFT(nftContract);\n\n        tokenContract.transferToken(msg.sender, address(this), tokenId);\n\n        address payable oldOwner = idForMarketItem[itemId].owner;\n        address payable oldSeller = idForMarketItem[itemId].seller;\n\n        uint256 oldPrice = idForMarketItem[itemId].price;\n\n        idForMarketItem[itemId].owner = payable(address(0));\n        idForMarketItem[itemId].seller = oldOwner;\n        idForMarketItem[itemId].price = newPrice;\n        idForMarketItem[itemId].sold = false;\n        idForMarketItem[itemId].isResell = false;\n\n        //Start to save old value\n        idForMarketItem[itemId].oldOwner = oldOwner;\n        idForMarketItem[itemId].oldSeller = oldSeller;\n        idForMarketItem[itemId].oldPrice = oldPrice;\n\n        itemsSold.decrement();\n        payable(owner).transfer(marketFees);\n        emit ProductListed(itemId);\n    }\n\n    //TO DO Send when cancel fees to Owner\n    function cancelResellWitholdPrice(address nftContract, uint256 nftItemId)\n        public\n        payable\n        nonReentrant\n    {\n        uint256 price = idForMarketItem[nftItemId].oldPrice;\n        uint256 tokenId = idForMarketItem[nftItemId].tokenId;\n\n        //require(msg.value == price,\"should buy the price of item\");\n        //idForMarketItem[nftItemId].seller.transfer(msg.value);\n        //  address sellerAddress = idForMarketItem[nftItemId].seller;\n        IERC721(nftContract).transferFrom(address(this), msg.sender, tokenId); //buy\n        idForMarketItem[nftItemId].owner = payable(msg.sender);\n        idForMarketItem[nftItemId].price = price;\n        idForMarketItem[nftItemId].seller = payable(\n            idForMarketItem[nftItemId].oldSeller\n        );\n        idForMarketItem[nftItemId].sold = true;\n        itemsSold.increment();\n\n        emit ProductSold(\n            idForMarketItem[nftItemId].id,\n            idForMarketItem[nftItemId].nftContract,\n            idForMarketItem[nftItemId].tokenId,\n            idForMarketItem[nftItemId].creator,\n            idForMarketItem[nftItemId].seller,\n            payable(msg.sender),\n            idForMarketItem[nftItemId].price,\n            address(0),\n            address(0),\n            0,\n            idForMarketItem[nftItemId].isResell,\n            true\n        );\n    }\n\n    ///FETCH SINGLE NFT\n    function fetchSingleItem(uint256 id)\n        public\n        view\n        returns (NftMerketItem memory)\n    {\n        return idForMarketItem[id];\n    }\n\n    //=>Update Item =>We Dont Use This\n\n    function getMyItemCreated() public view returns (NftMerketItem[] memory) {\n        uint256 totalItemCount = itemId.current();\n        uint256 myItemCount = 0; //10\n        uint256 myCurrentIndex = 0;\n\n        for (uint256 i = 0; i < totalItemCount; i++) {\n            if (idForMarketItem[i + 1].seller == msg.sender) {\n                myItemCount += 1;\n            }\n        }\n        NftMerketItem[] memory nftItems = new NftMerketItem[](myItemCount); //list[3]\n        for (uint256 i = 0; i < totalItemCount; i++) {\n            if (idForMarketItem[i + 1].seller == msg.sender) {\n                //[1,2,3,4,5]\n                uint256 currentId = i + 1;\n                NftMerketItem storage currentItem = idForMarketItem[currentId];\n                nftItems[myCurrentIndex] = currentItem;\n                myCurrentIndex += 1;\n            }\n        }\n\n        return nftItems;\n    }\n\n    //Create My purchased Nft Item\n\n    function getMyNFTPurchased() public view returns (NftMerketItem[] memory) {\n        uint256 totalItemCount = itemId.current();\n        uint256 myItemCount = 0; //10\n        uint256 myCurrentIndex = 0;\n\n        for (uint256 i = 0; i < totalItemCount; i++) {\n            if (idForMarketItem[i + 1].owner == msg.sender) {\n                myItemCount += 1;\n            }\n        }\n\n        NftMerketItem[] memory nftItems = new NftMerketItem[](myItemCount); //list[3]\n        for (uint256 i = 0; i < totalItemCount; i++) {\n            if (idForMarketItem[i + 1].owner == msg.sender) {\n                //[1,2,3,4,5]\n                uint256 currentId = i + 1;\n                NftMerketItem storage currentItem = idForMarketItem[currentId];\n                nftItems[myCurrentIndex] = currentItem;\n                myCurrentIndex += 1;\n            }\n        }\n\n        return nftItems;\n    }\n\n    //Fetch  all unsold nft items\n    function getAllUnsoldItems() public view returns (NftMerketItem[] memory) {\n        uint256 totalItemCount = itemId.current();\n        uint256 myItemCount = itemId.current() - itemsSold.current();\n        uint256 myCurrentIndex = 0;\n\n        NftMerketItem[] memory nftItems = new NftMerketItem[](myItemCount); //list[3]\n        for (uint256 i = 0; i < totalItemCount; i++) {\n            if (idForMarketItem[i + 1].owner == address(0)) {\n                //[1,2,3,4,5]\n                uint256 currentId = i + 1;\n                NftMerketItem storage currentItem = idForMarketItem[currentId];\n                nftItems[myCurrentIndex] = currentItem;\n                myCurrentIndex += 1;\n            }\n        }\n\n        return nftItems;\n    }\n\n    //Get resell my items\n\n    function getMyResellItems() public view returns (NftMerketItem[] memory) {\n        uint256 totalItemCount = itemId.current();\n        uint256 myItemCount = 0; //10\n        uint256 myCurrentIndex = 0;\n\n        for (uint256 i = 0; i < totalItemCount; i++) {\n            if (\n                (idForMarketItem[i + 1].seller == msg.sender) &&\n                (idForMarketItem[i + 1].sold == false)\n            ) {\n                myItemCount += 1;\n            }\n        }\n\n        NftMerketItem[] memory nftItems = new NftMerketItem[](myItemCount); //list[3]\n        for (uint256 i = 0; i < totalItemCount; i++) {\n            if (\n                (idForMarketItem[i + 1].seller == msg.sender) &&\n                (idForMarketItem[i + 1].sold == false)\n            ) {\n                //[1,2,3,4,5]\n                uint256 currentId = i + 1;\n                NftMerketItem storage currentItem = idForMarketItem[currentId];\n                nftItems[myCurrentIndex] = currentItem;\n                myCurrentIndex += 1;\n            }\n        }\n\n        return nftItems;\n    }\n}\n",
  "sourcePath": "D:\\Shah Faisal\\Projects\\OpenSky_NFt_Martplace-main\\contracts\\NFTMarketPlace.sol",
  "compiler": {
    "name": "solc",
    "version": "0.8.10+commit.fc410830.Emscripten.clang"
  },
  "schemaVersion": "3.4.4",
  "updatedAt": "2022-03-22T09:32:32.194Z",
  "networkType": "ethereum",
  "devdoc": {
    "kind": "dev",
    "methods": {},
    "version": 1
  },
  "userdoc": {
    "kind": "user",
    "methods": {
      "fetchSingleItem(uint256)": {
        "notice": "FETCH SINGLE NFT"
      }
    },
    "version": 1
  }
}